{
  "_format": "hh-sol-artifact-1",
  "contractName": "SocialMediaDapp",
  "sourceName": "contracts/SocialMediaDapp.sol",
  "abi": [
    {
      "anonymous": false,
      "inputs": [
        {
          "indexed": true,
          "internalType": "uint256",
          "name": "commentId",
          "type": "uint256"
        },
        {
          "indexed": true,
          "internalType": "uint256",
          "name": "postId",
          "type": "uint256"
        },
        {
          "indexed": true,
          "internalType": "address",
          "name": "author",
          "type": "address"
        },
        {
          "indexed": false,
          "internalType": "string",
          "name": "contentIpfsHash",
          "type": "string"
        },
        {
          "indexed": false,
          "internalType": "uint256",
          "name": "timestamp",
          "type": "uint256"
        }
      ],
      "name": "CommentAdded",
      "type": "event"
    },
    {
      "anonymous": false,
      "inputs": [
        {
          "indexed": true,
          "internalType": "address",
          "name": "previousOwner",
          "type": "address"
        },
        {
          "indexed": true,
          "internalType": "address",
          "name": "newOwner",
          "type": "address"
        }
      ],
      "name": "OwnershipTransferred",
      "type": "event"
    },
    {
      "anonymous": false,
      "inputs": [
        {
          "indexed": false,
          "internalType": "address",
          "name": "account",
          "type": "address"
        }
      ],
      "name": "Paused",
      "type": "event"
    },
    {
      "anonymous": false,
      "inputs": [
        {
          "indexed": true,
          "internalType": "uint256",
          "name": "postId",
          "type": "uint256"
        },
        {
          "indexed": true,
          "internalType": "address",
          "name": "author",
          "type": "address"
        },
        {
          "indexed": false,
          "internalType": "string",
          "name": "contentIpfsHash",
          "type": "string"
        },
        {
          "indexed": false,
          "internalType": "uint256",
          "name": "timestamp",
          "type": "uint256"
        }
      ],
      "name": "PostCreated",
      "type": "event"
    },
    {
      "anonymous": false,
      "inputs": [
        {
          "indexed": true,
          "internalType": "uint256",
          "name": "postId",
          "type": "uint256"
        },
        {
          "indexed": true,
          "internalType": "address",
          "name": "author",
          "type": "address"
        }
      ],
      "name": "PostDeleted",
      "type": "event"
    },
    {
      "anonymous": false,
      "inputs": [
        {
          "indexed": true,
          "internalType": "uint256",
          "name": "postId",
          "type": "uint256"
        },
        {
          "indexed": true,
          "internalType": "address",
          "name": "liker",
          "type": "address"
        },
        {
          "indexed": false,
          "internalType": "uint256",
          "name": "timestamp",
          "type": "uint256"
        }
      ],
      "name": "PostLiked",
      "type": "event"
    },
    {
      "anonymous": false,
      "inputs": [
        {
          "indexed": true,
          "internalType": "uint256",
          "name": "postId",
          "type": "uint256"
        },
        {
          "indexed": true,
          "internalType": "address",
          "name": "unliker",
          "type": "address"
        }
      ],
      "name": "PostUnliked",
      "type": "event"
    },
    {
      "anonymous": false,
      "inputs": [
        {
          "indexed": false,
          "internalType": "address",
          "name": "account",
          "type": "address"
        }
      ],
      "name": "Unpaused",
      "type": "event"
    },
    {
      "anonymous": false,
      "inputs": [
        {
          "indexed": true,
          "internalType": "address",
          "name": "userAddress",
          "type": "address"
        },
        {
          "indexed": false,
          "internalType": "string",
          "name": "username",
          "type": "string"
        },
        {
          "indexed": false,
          "internalType": "uint256",
          "name": "timestamp",
          "type": "uint256"
        }
      ],
      "name": "UserCreated",
      "type": "event"
    },
    {
      "anonymous": false,
      "inputs": [
        {
          "indexed": true,
          "internalType": "address",
          "name": "follower",
          "type": "address"
        },
        {
          "indexed": true,
          "internalType": "address",
          "name": "followed",
          "type": "address"
        },
        {
          "indexed": false,
          "internalType": "uint256",
          "name": "timestamp",
          "type": "uint256"
        }
      ],
      "name": "UserFollowed",
      "type": "event"
    },
    {
      "anonymous": false,
      "inputs": [
        {
          "indexed": true,
          "internalType": "address",
          "name": "follower",
          "type": "address"
        },
        {
          "indexed": true,
          "internalType": "address",
          "name": "unfollowed",
          "type": "address"
        }
      ],
      "name": "UserUnfollowed",
      "type": "event"
    },
    {
      "anonymous": false,
      "inputs": [
        {
          "indexed": true,
          "internalType": "address",
          "name": "userAddress",
          "type": "address"
        },
        {
          "indexed": false,
          "internalType": "string",
          "name": "username",
          "type": "string"
        },
        {
          "indexed": false,
          "internalType": "string",
          "name": "bio",
          "type": "string"
        },
        {
          "indexed": false,
          "internalType": "string",
          "name": "avatarIpfsHash",
          "type": "string"
        }
      ],
      "name": "UserUpdated",
      "type": "event"
    },
    {
      "inputs": [
        {
          "internalType": "uint256",
          "name": "_postId",
          "type": "uint256"
        },
        {
          "internalType": "string",
          "name": "_contentIpfsHash",
          "type": "string"
        }
      ],
      "name": "addComment",
      "outputs": [],
      "stateMutability": "nonpayable",
      "type": "function"
    },
    {
      "inputs": [
        {
          "internalType": "uint256",
          "name": "",
          "type": "uint256"
        }
      ],
      "name": "comments",
      "outputs": [
        {
          "internalType": "uint256",
          "name": "id",
          "type": "uint256"
        },
        {
          "internalType": "uint256",
          "name": "postId",
          "type": "uint256"
        },
        {
          "internalType": "address",
          "name": "author",
          "type": "address"
        },
        {
          "internalType": "string",
          "name": "contentIpfsHash",
          "type": "string"
        },
        {
          "internalType": "uint256",
          "name": "createdAt",
          "type": "uint256"
        },
        {
          "internalType": "bool",
          "name": "exists",
          "type": "bool"
        }
      ],
      "stateMutability": "view",
      "type": "function"
    },
    {
      "inputs": [
        {
          "internalType": "string",
          "name": "_contentIpfsHash",
          "type": "string"
        }
      ],
      "name": "createPost",
      "outputs": [],
      "stateMutability": "nonpayable",
      "type": "function"
    },
    {
      "inputs": [
        {
          "internalType": "string",
          "name": "_username",
          "type": "string"
        },
        {
          "internalType": "string",
          "name": "_bio",
          "type": "string"
        },
        {
          "internalType": "string",
          "name": "_avatarIpfsHash",
          "type": "string"
        }
      ],
      "name": "createUser",
      "outputs": [],
      "stateMutability": "nonpayable",
      "type": "function"
    },
    {
      "inputs": [
        {
          "internalType": "uint256",
          "name": "_postId",
          "type": "uint256"
        }
      ],
      "name": "deletePost",
      "outputs": [],
      "stateMutability": "nonpayable",
      "type": "function"
    },
    {
      "inputs": [
        {
          "internalType": "address",
          "name": "_userToFollow",
          "type": "address"
        }
      ],
      "name": "followUser",
      "outputs": [],
      "stateMutability": "nonpayable",
      "type": "function"
    },
    {
      "inputs": [
        {
          "internalType": "address",
          "name": "",
          "type": "address"
        },
        {
          "internalType": "uint256",
          "name": "",
          "type": "uint256"
        }
      ],
      "name": "followersList",
      "outputs": [
        {
          "internalType": "address",
          "name": "",
          "type": "address"
        }
      ],
      "stateMutability": "view",
      "type": "function"
    },
    {
      "inputs": [
        {
          "internalType": "address",
          "name": "",
          "type": "address"
        },
        {
          "internalType": "uint256",
          "name": "",
          "type": "uint256"
        }
      ],
      "name": "followingList",
      "outputs": [
        {
          "internalType": "address",
          "name": "",
          "type": "address"
        }
      ],
      "stateMutability": "view",
      "type": "function"
    },
    {
      "inputs": [
        {
          "internalType": "uint256",
          "name": "_commentId",
          "type": "uint256"
        }
      ],
      "name": "getComment",
      "outputs": [
        {
          "components": [
            {
              "internalType": "uint256",
              "name": "id",
              "type": "uint256"
            },
            {
              "internalType": "uint256",
              "name": "postId",
              "type": "uint256"
            },
            {
              "internalType": "address",
              "name": "author",
              "type": "address"
            },
            {
              "internalType": "string",
              "name": "contentIpfsHash",
              "type": "string"
            },
            {
              "internalType": "uint256",
              "name": "createdAt",
              "type": "uint256"
            },
            {
              "internalType": "bool",
              "name": "exists",
              "type": "bool"
            }
          ],
          "internalType": "struct SocialMediaDapp.Comment",
          "name": "",
          "type": "tuple"
        }
      ],
      "stateMutability": "view",
      "type": "function"
    },
    {
      "inputs": [
        {
          "internalType": "address",
          "name": "_userAddress",
          "type": "address"
        }
      ],
      "name": "getFollowers",
      "outputs": [
        {
          "internalType": "address[]",
          "name": "",
          "type": "address[]"
        }
      ],
      "stateMutability": "view",
      "type": "function"
    },
    {
      "inputs": [
        {
          "internalType": "address",
          "name": "_userAddress",
          "type": "address"
        }
      ],
      "name": "getFollowing",
      "outputs": [
        {
          "internalType": "address[]",
          "name": "",
          "type": "address[]"
        }
      ],
      "stateMutability": "view",
      "type": "function"
    },
    {
      "inputs": [
        {
          "internalType": "uint256",
          "name": "_postId",
          "type": "uint256"
        }
      ],
      "name": "getPost",
      "outputs": [
        {
          "components": [
            {
              "internalType": "uint256",
              "name": "id",
              "type": "uint256"
            },
            {
              "internalType": "address",
              "name": "author",
              "type": "address"
            },
            {
              "internalType": "string",
              "name": "contentIpfsHash",
              "type": "string"
            },
            {
              "internalType": "uint256",
              "name": "likeCount",
              "type": "uint256"
            },
            {
              "internalType": "uint256",
              "name": "commentCount",
              "type": "uint256"
            },
            {
              "internalType": "uint256",
              "name": "createdAt",
              "type": "uint256"
            },
            {
              "internalType": "bool",
              "name": "exists",
              "type": "bool"
            }
          ],
          "internalType": "struct SocialMediaDapp.Post",
          "name": "",
          "type": "tuple"
        }
      ],
      "stateMutability": "view",
      "type": "function"
    },
    {
      "inputs": [
        {
          "internalType": "uint256",
          "name": "_postId",
          "type": "uint256"
        }
      ],
      "name": "getPostComments",
      "outputs": [
        {
          "internalType": "uint256[]",
          "name": "",
          "type": "uint256[]"
        }
      ],
      "stateMutability": "view",
      "type": "function"
    },
    {
      "inputs": [],
      "name": "getTotalComments",
      "outputs": [
        {
          "internalType": "uint256",
          "name": "",
          "type": "uint256"
        }
      ],
      "stateMutability": "view",
      "type": "function"
    },
    {
      "inputs": [],
      "name": "getTotalPosts",
      "outputs": [
        {
          "internalType": "uint256",
          "name": "",
          "type": "uint256"
        }
      ],
      "stateMutability": "view",
      "type": "function"
    },
    {
      "inputs": [
        {
          "internalType": "address",
          "name": "_userAddress",
          "type": "address"
        }
      ],
      "name": "getUser",
      "outputs": [
        {
          "components": [
            {
              "internalType": "string",
              "name": "username",
              "type": "string"
            },
            {
              "internalType": "string",
              "name": "bio",
              "type": "string"
            },
            {
              "internalType": "string",
              "name": "avatarIpfsHash",
              "type": "string"
            },
            {
              "internalType": "uint256",
              "name": "followerCount",
              "type": "uint256"
            },
            {
              "internalType": "uint256",
              "name": "followingCount",
              "type": "uint256"
            },
            {
              "internalType": "uint256",
              "name": "postCount",
              "type": "uint256"
            },
            {
              "internalType": "bool",
              "name": "exists",
              "type": "bool"
            },
            {
              "internalType": "uint256",
              "name": "createdAt",
              "type": "uint256"
            }
          ],
          "internalType": "struct SocialMediaDapp.User",
          "name": "",
          "type": "tuple"
        }
      ],
      "stateMutability": "view",
      "type": "function"
    },
    {
      "inputs": [
        {
          "internalType": "address",
          "name": "_userAddress",
          "type": "address"
        }
      ],
      "name": "getUserPosts",
      "outputs": [
        {
          "internalType": "uint256[]",
          "name": "",
          "type": "uint256[]"
        }
      ],
      "stateMutability": "view",
      "type": "function"
    },
    {
      "inputs": [
        {
          "internalType": "uint256",
          "name": "",
          "type": "uint256"
        },
        {
          "internalType": "address",
          "name": "",
          "type": "address"
        }
      ],
      "name": "hasLiked",
      "outputs": [
        {
          "internalType": "bool",
          "name": "",
          "type": "bool"
        }
      ],
      "stateMutability": "view",
      "type": "function"
    },
    {
      "inputs": [
        {
          "internalType": "uint256",
          "name": "_postId",
          "type": "uint256"
        },
        {
          "internalType": "address",
          "name": "_user",
          "type": "address"
        }
      ],
      "name": "hasUserLikedPost",
      "outputs": [
        {
          "internalType": "bool",
          "name": "",
          "type": "bool"
        }
      ],
      "stateMutability": "view",
      "type": "function"
    },
    {
      "inputs": [
        {
          "internalType": "address",
          "name": "_follower",
          "type": "address"
        },
        {
          "internalType": "address",
          "name": "_followed",
          "type": "address"
        }
      ],
      "name": "isFollowing",
      "outputs": [
        {
          "internalType": "bool",
          "name": "",
          "type": "bool"
        }
      ],
      "stateMutability": "view",
      "type": "function"
    },
    {
      "inputs": [
        {
          "internalType": "uint256",
          "name": "_postId",
          "type": "uint256"
        }
      ],
      "name": "likePost",
      "outputs": [],
      "stateMutability": "nonpayable",
      "type": "function"
    },
    {
      "inputs": [],
      "name": "owner",
      "outputs": [
        {
          "internalType": "address",
          "name": "",
          "type": "address"
        }
      ],
      "stateMutability": "view",
      "type": "function"
    },
    {
      "inputs": [],
      "name": "pause",
      "outputs": [],
      "stateMutability": "nonpayable",
      "type": "function"
    },
    {
      "inputs": [],
      "name": "paused",
      "outputs": [
        {
          "internalType": "bool",
          "name": "",
          "type": "bool"
        }
      ],
      "stateMutability": "view",
      "type": "function"
    },
    {
      "inputs": [
        {
          "internalType": "uint256",
          "name": "",
          "type": "uint256"
        },
        {
          "internalType": "uint256",
          "name": "",
          "type": "uint256"
        }
      ],
      "name": "postComments",
      "outputs": [
        {
          "internalType": "uint256",
          "name": "",
          "type": "uint256"
        }
      ],
      "stateMutability": "view",
      "type": "function"
    },
    {
      "inputs": [
        {
          "internalType": "uint256",
          "name": "",
          "type": "uint256"
        }
      ],
      "name": "posts",
      "outputs": [
        {
          "internalType": "uint256",
          "name": "id",
          "type": "uint256"
        },
        {
          "internalType": "address",
          "name": "author",
          "type": "address"
        },
        {
          "internalType": "string",
          "name": "contentIpfsHash",
          "type": "string"
        },
        {
          "internalType": "uint256",
          "name": "likeCount",
          "type": "uint256"
        },
        {
          "internalType": "uint256",
          "name": "commentCount",
          "type": "uint256"
        },
        {
          "internalType": "uint256",
          "name": "createdAt",
          "type": "uint256"
        },
        {
          "internalType": "bool",
          "name": "exists",
          "type": "bool"
        }
      ],
      "stateMutability": "view",
      "type": "function"
    },
    {
      "inputs": [],
      "name": "renounceOwnership",
      "outputs": [],
      "stateMutability": "nonpayable",
      "type": "function"
    },
    {
      "inputs": [
        {
          "internalType": "address",
          "name": "newOwner",
          "type": "address"
        }
      ],
      "name": "transferOwnership",
      "outputs": [],
      "stateMutability": "nonpayable",
      "type": "function"
    },
    {
      "inputs": [
        {
          "internalType": "address",
          "name": "_userToUnfollow",
          "type": "address"
        }
      ],
      "name": "unfollowUser",
      "outputs": [],
      "stateMutability": "nonpayable",
      "type": "function"
    },
    {
      "inputs": [
        {
          "internalType": "uint256",
          "name": "_postId",
          "type": "uint256"
        }
      ],
      "name": "unlikePost",
      "outputs": [],
      "stateMutability": "nonpayable",
      "type": "function"
    },
    {
      "inputs": [],
      "name": "unpause",
      "outputs": [],
      "stateMutability": "nonpayable",
      "type": "function"
    },
    {
      "inputs": [
        {
          "internalType": "string",
          "name": "_username",
          "type": "string"
        },
        {
          "internalType": "string",
          "name": "_bio",
          "type": "string"
        },
        {
          "internalType": "string",
          "name": "_avatarIpfsHash",
          "type": "string"
        }
      ],
      "name": "updateUserProfile",
      "outputs": [],
      "stateMutability": "nonpayable",
      "type": "function"
    },
    {
      "inputs": [
        {
          "internalType": "address",
          "name": "",
          "type": "address"
        },
        {
          "internalType": "uint256",
          "name": "",
          "type": "uint256"
        }
      ],
      "name": "userPosts",
      "outputs": [
        {
          "internalType": "uint256",
          "name": "",
          "type": "uint256"
        }
      ],
      "stateMutability": "view",
      "type": "function"
    },
    {
      "inputs": [
        {
          "internalType": "address",
          "name": "",
          "type": "address"
        }
      ],
      "name": "users",
      "outputs": [
        {
          "internalType": "string",
          "name": "username",
          "type": "string"
        },
        {
          "internalType": "string",
          "name": "bio",
          "type": "string"
        },
        {
          "internalType": "string",
          "name": "avatarIpfsHash",
          "type": "string"
        },
        {
          "internalType": "uint256",
          "name": "followerCount",
          "type": "uint256"
        },
        {
          "internalType": "uint256",
          "name": "followingCount",
          "type": "uint256"
        },
        {
          "internalType": "uint256",
          "name": "postCount",
          "type": "uint256"
        },
        {
          "internalType": "bool",
          "name": "exists",
          "type": "bool"
        },
        {
          "internalType": "uint256",
          "name": "createdAt",
          "type": "uint256"
        }
      ],
      "stateMutability": "view",
      "type": "function"
    }
  ],
  "bytecode": "0x608080604052346100635760016000556001543360018060a01b0382167f8be0079c531659141344cd1fd0a4f28419497f9722a3daafe3b4186f6b6457e0600080a36001600160a81b0319163360ff60a01b191617600155612abd90816100698239f35b600080fdfe608080604052600436101561001357600080fd5b60e0600035811c9182630800e3001461239057508163094cd5ee1461229f5781630b1e7f831461220d5781632c994afa146121ef5781633f4ba83a1461215357816340731c24146120255781634145935d14611fdc5781635193c94c14611fa357816359ae069b14611ae55781635c975abb14611abf5781635fe226b414611aa15781636f77926b14611927578163715018a6146118ca578163725009d31461173f5781638064d149146116e75781638456cb59146116855781638726a60f1461162c5781638da5cb5b146116035781638ebb4c151461157c5781638fb7092c1461038057816399ec3a42146115465781639a2194a9146114b2578163a70806f714611324578163a87430ba1461125957508063aa7e568314610f49578063bace029014610b52578063c2fe202214610abb578063c7303c61146107a9578063d524ff7614610717578063d8236dff14610670578063f107cfcb146103cd578063f2a43db814610380578063f2fde38b146102bc5763fa188de91461019757600080fd5b346102b7576020806003193601126102b7576004359081600052600781526101c960ff60066040600020015416612972565b33600052600481526101e560ff600660406000200154166128ec565b6101ed6128a5565b8160005260098152604060002033600052815260ff60406000205416156102735760079082600052600981526040600020336000528152604060002060ff1981541690558260005252600360406000200161024881546129b4565b905533907f82092d1196022c48d901e5dc4b17451dbce942b8a9ded42fc6f2a4a5e8fd89b9600080a3005b6064906040519062461bcd60e51b82526004820152601860248201527f48617665206e6f74206c696b6564207468697320706f737400000000000000006044820152fd5b600080fd5b346102b75760203660031901126102b7576102d5612672565b6102dd612801565b6001600160a01b0390811690811561032c57600154826001600160601b0360a01b821617600155167f8be0079c531659141344cd1fd0a4f28419497f9722a3daafe3b4186f6b6457e0600080a3005b60405162461bcd60e51b815260206004820152602660248201527f4f776e61626c653a206e6577206f776e657220697320746865207a65726f206160448201526564647265737360d01b6064820152608490fd5b346102b75760403660031901126102b757610399612688565b600435600052600960205260406000209060018060a01b0316600052602052602060ff604060002054166040519015158152f35b346102b7576020806003193601126102b7576103e7612672565b903360005260048152600661040560ff8260406000200154166128ec565b60018060a01b0361043c81851694856000526004855261042e60ff8560406000200154166128ec565b6104366128a5565b33612a27565b1561062b5760005b3360005260058085528560406000208054841015610620579061046884869361269e565b929054600393841b1c16146104875750506104829061292e565b610444565b909194929394336000528284526040600020805460001981019081116105fd576104f0936104b988926104d19461269e565b9054911b1c169133600052848652604060002061269e565b90919082549060031b9160018060a01b03809116831b921b1916179055565b33600052815261050360406000206129e4565b60005b846000528382526040600020805482101561061357816105259161269e565b9054600391821b1c84163314610544575061053f9061292e565b610506565b939192908560005282845260406000209182549060001982019182116105fd576004966105776104d19361058f9661269e565b9054911b1c169187600052848652604060002061269e565b8360005281526105a260406000206129e4565b33600052818152816040600020016105ba81546129b4565b9055826000525260036040600020016105d381546129b4565b9055337fe7339343c6edff57f2d15278c419523844cea30ae5ee2146aa22cb9e3107dab7600080a3005b634e487b7160e01b600052601160045260246000fd5b50509050600491506105a2565b505050509091610503565b60405162461bcd60e51b815260048101849052601760248201527f4e6f7420666f6c6c6f77696e67207468697320757365720000000000000000006044820152606490fd5b346102b7576020806003193601126102b7576001600160a01b0380610693612672565b1680600052600483526106b060ff600660406000200154166128ec565b60005260058252604060002091604051809282855492838152019460005282600020926000915b8383106106fe576106fa866106ee818a03826125aa565b604051918291826127bd565b0390f35b84548116875295810195600194850194909201916106d7565b346102b7576020806003193601126102b757600435806000526007825261074860ff60066040600020015416612972565b600052600b8152604060002090604051908181845491828152019360005281600020916000905b828210610792576106fa85610786818903826125aa565b60405191829182612782565b83548652948501946001938401939091019061076f565b346102b75760203660031901126102b75767ffffffffffffffff6004358181116102b7576107db9036906004016126cc565b3360005260046020526107f860ff600660406000200154166128ec565b6108006128a5565b805115610a765761081260025461292e565b8060025560405161082281612571565b8181526020810191338352604082019084825260006060840152600060808401524260a0840152600160c0840152600052600760205260406000209282518455600184019060018060a01b039051166001600160601b0360a01b82541617905551938451908111610a605761089a600284015461251b565b601f8111610a15575b506020601f821160011461099d57918160c0926006946109139798600092610992575b50508160011b916000199060031b1c19161760028501555b606081015160038501556080810151600485015560a081015160058501550151151591019060ff801983541691151516179055565b33600052600a60205261092d60406000206002549061293d565b3360005260046020526005604060002001610948815461292e565b90556002547f285db98a4632176385795ddf0d2b67cef1a21f47eb2f5d06f786ab6b5147e200610983604051936040855260408501906124db565b924260208201528033940390a3005b0151905088806108c6565b6002840160005260206000209560005b601f19841681106109fd57508261091396976006959360019360c096601f198116106109e4575b505050811b0160028501556108de565b015160001960f88460031b161c191690558880806109d4565b828201518855600190970196602092830192016109ad565b600284016000526020600020601f830160051c81019160208410610a56575b601f0160051c01905b818110610a4a57506108a3565b60008155600101610a3d565b9091508190610a34565b634e487b7160e01b600052604160045260246000fd5b60405162461bcd60e51b815260206004820152601760248201527f436f6e74656e742063616e6e6f7420626520656d7074790000000000000000006044820152606490fd5b346102b7576020806003193601126102b7576001600160a01b0380610ade612672565b168060005260048352610afb60ff600660406000200154166128ec565b60005260068252604060002091604051809282855492838152019460005282600020926000915b838310610b39576106fa866106ee818a03826125aa565b8454811687529581019560019485019490920191610b22565b346102b757610b6036612723565b91903360005260209060048252610b8160ff600660406000200154166128ec565b610b896128a5565b610b9583511515612859565b3360005260048252604060002083519067ffffffffffffffff90818311610a6057610bc0815461251b565b92601f93848111610f06575b508086858211600114610ea257600091610e97575b508160011b916000199060031b1c19161790555b33600052600484526001806040600020018451838111610a6057610c19825461251b565b858111610e51575b508087868211600114610df057600091610de5575b50600019600383901b1c191690831b1790555b33600052600485526002604060002001928751928311610a6057610c6d845461251b565b818111610d9f575b5085908311600114610d0d5793610cfd938380610cee95610ce199957f4b314ef62dce971c911709f34a09ad2379c819e66e3529f09fcf90464b46498e9b99600093610d02575b501b916000199060031b1c19161790555b6040519586956060875260608701906124db565b91858303908601526124db565b828103604084015233956124db565b0390a2005b8d015192508d610cbc565b601f9291921982169084600052866000209160005b8a828210610d8b57505093837f4b314ef62dce971c911709f34a09ad2379c819e66e3529f09fcf90464b46498e999793610cfd9793610ce19a96610cee9810610d72575b5050811b019055610ccd565b8c015160001960f88460031b161c191690558b80610d66565b830151845592850192918801918801610d22565b84600052866000208280860160051c820192898710610ddc575b0160051c019083905b828110610dd0575050610c75565b60008155018390610dc2565b92508192610db9565b90508601518a610c36565b849250601f1982169084600052896000209160005b8b828210610e3b5750508311610e22575b5050811b019055610c49565b88015160001960f88460031b161c191690558a80610e16565b838c015185558896909401939283019201610e05565b82600052876000208680840160051c8201928a8510610e8e575b0160051c019084905b828110610e82575050610c21565b60008155018490610e74565b92508192610e6b565b905087015189610be1565b60008481528881209250601f198416905b898b838310610ef1575050509083600194939210610ed8575b5050811b019055610bf5565b89015160001960f88460031b161c191690558980610ecc565b84015185556001909401939283019201610eb3565b82600052866000208580840160051c820192898510610f40575b0160051c01905b818110610f345750610bcc565b60008155600101610f27565b92508192610f20565b346102b75760403660031901126102b75767ffffffffffffffff6024358181116102b757610f7b9036906004016126cc565b6004356000526007602052610f9a60ff60066040600020015416612972565b336000526004602052610fb760ff600660406000200154166128ec565b610fbf6128a5565b80511561121457610fd160035461292e565b80600355604051610fe181612555565b81815260208101916004358352604082013381526060830191858352426080850152600160a0850152600052600860205260406000209383518555516001850155600284019060018060a01b039051166001600160601b0360a01b82541617905551938451908111610a605761105a600384015461251b565b601f81116111c9575b506020601f821160011461115157918160a0926005946110bf9798600092611146575b50508160011b916000199060031b1c19161760038501555b608081015160048501550151151591019060ff801983541691151516179055565b600435600052600b6020526110db60406000206003549061293d565b600435600052600760205260046040600020016110f8815461292e565b9055600354611112604051926040845260408401906124db565b904260208401527f92eb5433849a5a2a1922dadaf613eff78bb7de4173779f8d4683b877aac7260f339380600435940390a4005b015190508880611086565b6003840160005260206000209560005b601f19841681106111b15750826110bf96976005959360019360a096601f19811610611198575b505050811b01600385015561109e565b015160001960f88460031b161c19169055888080611188565b82820151885560019097019660209283019201611161565b600384016000526020600020601f830160051c8101916020841061120a575b601f0160051c01905b8181106111fe5750611063565b600081556001016111f1565b90915081906111e8565b60405162461bcd60e51b815260206004820152601760248201527f436f6d6d656e742063616e6e6f7420626520656d7074790000000000000000006044820152606490fd5b346102b75760203660031901126102b7576112ea906001600160a01b0361127e612672565b1660005260046020526040600020611295816125cc565b916112a2600183016125cc565b906112af600284016125cc565b9260038101549360048201546113066005840154926112f8600760ff600688015416960154976040519b8c9b8c6101008091528d01906124db565b908b820360208d01526124db565b9089820360408b01526124db565b956060880152608087015260a0860152151560c08501528301520390f35b346102b7576020806003193601126102b75761133e612672565b90336000526004815261135b60ff600660406000200154166128ec565b60018060a01b03821691826000526004825261138160ff600660406000200154166128ec565b6113896128a5565b8233146114745761139a8133612a27565b61142f576113b490336000526005835260406000206129c1565b81600052600681526113ca3360406000206129c1565b336000526004815260046040600020016113e4815461292e565b905581600052600481526003604060002001611400815461292e565b90557f53e62c84b456cda6228f6c0acd671088271c8bb9627a72d3f8c3d631c8473724604051914283523392a3005b60405162461bcd60e51b815260048101839052601b60248201527f416c726561647920666f6c6c6f77696e672074686973207573657200000000006044820152606490fd5b60405162461bcd60e51b815260048101839052601660248201527521b0b73737ba103337b63637bb903cb7bab939b2b63360511b6044820152606490fd5b346102b7576020806003193601126102b7576001600160a01b036114d4612672565b1680600052600482526114f160ff600660406000200154166128ec565b600052600a8152604060002090604051908181845491828152019360005281600020916000905b82821061152f576106fa85610786818903826125aa565b835486529485019460019384019390910190611518565b346102b75760403660031901126102b7576020611572611564612672565b61156c612688565b90612a27565b6040519015158152f35b346102b75760203660031901126102b75760043560005260086020526040600020805460018201549160018060a01b036002820154166115f26115c1600384016125cc565b60ff60056004860154950154169260405196879687526020870152604086015260c0606086015260c08501906124db565b916080840152151560a08301520390f35b346102b75760003660031901126102b7576001546040516001600160a01b039091168152602090f35b346102b75760403660031901126102b757611645612672565b6024359060018060a01b038091166000526005602052604060002080548310156102b7576020926116759161269e565b9190546040519260031b1c168152f35b346102b75760003660031901126102b75761169e612801565b6116a66128a5565b6001805460ff60a01b1916600160a01b1790556040513381527f62e78cea01bee320cd4e420270b5ea74000d11b0c9f74754ebdbfc544b05a25890602090a1005b346102b75760403660031901126102b757611700612672565b6001600160a01b03166000908152600a60205260409020805460243591908210156102b7576020916117319161269e565b90546040519160031b1c8152f35b346102b7576020806003193601126102b757600435806000526007825261177060ff60066040600020015416612972565b336000526004825261178c60ff600660406000200154166128ec565b6117946128a5565b8060005260098252604060002033600052825260ff604060002054166118855760008181526007835260409020600101546001600160a01b0316331461184057806000526009825260406000203360005282526040600020600160ff1982541617905580600052600782526003604060002001611811815461292e565b90557fdfb8e3561bacb6caea7f0960d425956921b9147a631b6e857325c39911ee7e3b604051924284523393a3005b60405162461bcd60e51b815260048101839052601960248201527f43616e6e6f74206c696b6520796f7572206f776e20706f7374000000000000006044820152606490fd5b60405162461bcd60e51b815260048101839052601760248201527f416c7265616479206c696b6564207468697320706f73740000000000000000006044820152606490fd5b346102b75760003660031901126102b7576118e3612801565b600180546001600160a01b031981169091556000906001600160a01b03167f8be0079c531659141344cd1fd0a4f28419497f9722a3daafe3b4186f6b6457e08280a3005b346102b757602090816003193601126102b757611a5990611946612672565b92604051936119548561258d565b600083606096878152878582015287604082015282888201528260808201528260a08201528260c0820152015260018060a01b031680600052600482526119a560ff600660406000200154166128ec565b60005260048152604060002093604051926119bf8461258d565b6119c8866125cc565b84526119d6600187016125cc565b958385019687526119e9600282016125cc565b9460408101958652600382015495848201968752611a7e6004840154916080840192835260058501549360a08101948552600760ff6006880154169660c083019715158852015497878201988952611a6e6040519d8e9d8e948d865251610100809e8701526101208601906124db565b9051601f1994604086828503019101526124db565b9251918c840301908c01526124db565b965160808901525160a08801525160c08701525115159085015251908301520390f35b346102b75760003660031901126102b7576020600254604051908152f35b346102b75760003660031901126102b757602060ff60015460a01c166040519015158152f35b346102b757611af336612723565b611aff939192936128a5565b33600052600460205260ff60066040600020015416611f6857611b2484511515612859565b60405192611b318461258d565b848452602084015260408301526000606083015260006080830152600060a0830152600160c08301524281830152336000526004602052604060002091805180519067ffffffffffffffff8211610a60578190611b8e865461251b565b601f8111611f18575b50602090601f8311600114611eac57600092611ea1575b50508160011b916000199060031b1c19161783555b602081015180519067ffffffffffffffff8211610a60578190611be9600187015461251b565b601f8111611e4e575b50602090601f8311600114611ddc57600092611dd1575b50508160011b916000199060031b1c19161760018401555b604081015180519067ffffffffffffffff8211610a6057611c45600286015461251b565b601f8111611d8a575b50602090601f8311600114611d165760079493929160009183611d0b575b50508160011b916000199060031b1c19161760028501555b606081015160038501556080810151600485015560a08101516005850155611cc160c08201511515600686019060ff801983541691151516179055565b01519101557f196a149a119e63a40fb6cf63cc95b680cc1e42d985ede26ed52f560d7b68f8f3611cfc604051926040845260408401906124db565b914260208201528033930390a2005b015190508780611c6c565b906002860160005260206000209160005b601f1985168110611d7257509183916001936007979695601f19811610611d59575b505050811b016002850155611c84565b015160001960f88460031b161c19169055878080611d49565b91926020600181928685015181550194019201611d27565b600286016000526020600020601f840160051c810160208510611dca575b601f830160051c82018110611dbe575050611c4e565b60008155600101611da8565b5080611da8565b015190508680611c09565b9250600186016000526020600020906000935b601f1984168510611e33576001945083601f19811610611e1a575b505050811b016001840155611c21565b015160001960f88460031b161c19169055868080611e0a565b81810151835560209485019460019093019290910190611def565b909150600186016000526020600020601f840160051c810160208510611e9a575b90849392915b601f830160051c82018110611e8b575050611bf2565b60008155859450600101611e75565b5080611e6f565b015190508680611bae565b9250856000526020600020906000935b601f1984168510611efd576001945083601f19811610611ee4575b505050811b018355611bc3565b015160001960f88460031b161c19169055868080611ed7565b81810151835560209485019460019093019290910190611ebc565b909150856000526020600020601f840160051c810160208510611f61575b90849392915b601f830160051c82018110611f52575050611b97565b60008155859450600101611f3c565b5080611f36565b60405162461bcd60e51b81526020600482015260136024820152725573657220616c72656164792065786973747360681b6044820152606490fd5b346102b75760403660031901126102b757602435600435600052600b602052604060002080548210156102b7576020916117319161269e565b346102b75760403660031901126102b757611ff5612672565b6024359060018060a01b038091166000526006602052604060002080548310156102b7576020926116759161269e565b346102b757602090816003193601126102b757600435600060c060405161204b81612571565b8281528286820152606060408201528260608201528260808201528260a08201520152806000526007835261208a60ff60066040600020015416612972565b600052600782526040600020604051916120a383612571565b8154835260018201546001600160a01b0390811685850190815290926120cb600282016125cc565b9360408601948552612135600383015495606088019687526004840154926080890193845260ff600660058701549660a08c019788520154169560c08a0196151587526040519a8b9a818c5251908b015251166040890152518560608901526101008801906124db565b945160808701525160a08601525160c0850152511515908301520390f35b346102b75760003660031901126102b75761216c612801565b60015460ff8160a01c16156121b35760ff60a01b19166001556040513381527f5db9ee0a495bf2e6ff9c91a7834c1ba4fdd244a5e8aa4e537bd38aeae4b073aa90602090a1005b60405162461bcd60e51b815260206004820152601460248201527314185d5cd8589b194e881b9bdd081c185d5cd95960621b6044820152606490fd5b346102b75760003660031901126102b7576020600354604051908152f35b346102b75760203660031901126102b7576004356000526007602052604060002080549060018060a01b036001820154169261224b600283016125cc565b9160038101549261228460048301549160ff600660058601549501541694604051988998895260208901528060408901528701906124db565b936060860152608085015260a0840152151560c08301520390f35b346102b7576020806003193601126102b7576004359081600052600781526122d160ff60066040600020015416612972565b6122d96128a5565b60008281526007825260409020600101546001600160a01b03163303612356576004908260005260078152600660406000200160ff1981541690553360005252600560406000200161232b81546129b4565b905533907f1da4a15b15417b54b8b3bea2ca87cfc4c94f0fee7d86702d0dab9e2906e7a7d3600080a3005b6064906040519062461bcd60e51b8252600482015260136024820152722737ba103a3432903837b9ba1030baba3437b960691b6044820152fd5b90346102b757602091826003193601126102b757600060a0600435926123b581612555565b82815282868201528260408201526060808201528260808201520152806000526008835260ff600560406000200154161561249d576000526008825260406000206040519161240383612555565b8154835261248a60018301549185850192835260018060a01b03806002860154169060408701918252612438600387016125cc565b916060880192835260ff600560048901549860808b01998a520154169560a089019615158752604051998a99818b5251908a015251604089015251166060870152519060c060808701528501906124db565b915160a084015251151560c08301520390f35b60405162461bcd60e51b815260048101849052601660248201527510dbdb5b595b9d08191bd95cc81b9bdd08195e1a5cdd60521b6044820152606490fd5b919082519283825260005b848110612507575050826000602080949584010152601f8019910116010190565b6020818301810151848301820152016124e6565b90600182811c9216801561254b575b602083101461253557565b634e487b7160e01b600052602260045260246000fd5b91607f169161252a565b60c0810190811067ffffffffffffffff821117610a6057604052565b60e0810190811067ffffffffffffffff821117610a6057604052565b610100810190811067ffffffffffffffff821117610a6057604052565b90601f8019910116810190811067ffffffffffffffff821117610a6057604052565b90604051918260008254926125e08461251b565b90818452600194858116908160001461264f575060011461260c575b505061260a925003836125aa565b565b9093915060005260209081600020936000915b81831061263757505061260a935082010138806125fc565b8554888401850152948501948794509183019161261f565b91505061260a94506020925060ff191682840152151560051b82010138806125fc565b600435906001600160a01b03821682036102b757565b602435906001600160a01b03821682036102b757565b80548210156126b65760005260206000200190600090565b634e487b7160e01b600052603260045260246000fd5b81601f820112156102b75780359067ffffffffffffffff8211610a605760405192612701601f8401601f1916602001856125aa565b828452602083830101116102b757816000926020809301838601378301015290565b60606003198201126102b75767ffffffffffffffff916004358381116102b75782612750916004016126cc565b926024358181116102b75783612768916004016126cc565b926044359182116102b75761277f916004016126cc565b90565b6020908160408183019282815285518094520193019160005b8281106127a9575050505090565b83518552938101939281019260010161279b565b6020908160408183019282815285518094520193019160005b8281106127e4575050505090565b83516001600160a01b0316855293810193928101926001016127d6565b6001546001600160a01b0316330361281557565b606460405162461bcd60e51b815260206004820152602060248201527f4f776e61626c653a2063616c6c6572206973206e6f7420746865206f776e65726044820152fd5b1561286057565b60405162461bcd60e51b815260206004820152601860248201527f557365726e616d652063616e6e6f7420626520656d70747900000000000000006044820152606490fd5b60ff60015460a01c166128b457565b60405162461bcd60e51b815260206004820152601060248201526f14185d5cd8589b194e881c185d5cd95960821b6044820152606490fd5b156128f357565b60405162461bcd60e51b8152602060048201526013602482015272155cd95c88191bd95cc81b9bdd08195e1a5cdd606a1b6044820152606490fd5b60001981146105fd5760010190565b8054600160401b811015610a605761295a9160018201815561269e565b819291549060031b91821b91600019901b1916179055565b1561297957565b60405162461bcd60e51b8152602060048201526013602482015272141bdcdd08191bd95cc81b9bdd08195e1a5cdd606a1b6044820152606490fd5b80156105fd576000190190565b90815491600160401b831015610a6057826104d191600161260a9501815561269e565b80548015612a115760001901906129fb828261269e565b81549060018060a01b039060031b1b1916905555565b634e487b7160e01b600052603160045260246000fd5b60005b6001600160a01b0382811660009081526005602052604090208054831015612a7d5782612a569161269e565b9190548186169260031b1c1614612a7557612a709061292e565b612a2a565b505050600190565b505050505060009056fea26469706673582212202b7033ca0b1e52d49f2b69928752c0a920b1e71f99a82b04f72a021a0178f51a64736f6c63430008130033",
  "linkReferences": {},
  "deployedLinkReferences": {}
}